{
  "contractName": "Profiles",
  "abi": [
    {
      "constant": true,
      "inputs": [
        {
          "name": "",
          "type": "address"
        }
      ],
      "name": "addressToProfile",
      "outputs": [
        {
          "name": "owner",
          "type": "address"
        },
        {
          "name": "name",
          "type": "bytes32"
        },
        {
          "name": "sex",
          "type": "bytes32"
        },
        {
          "name": "age",
          "type": "uint32"
        },
        {
          "name": "bio",
          "type": "string"
        },
        {
          "name": "imageHash",
          "type": "string"
        }
      ],
      "payable": false,
      "stateMutability": "view",
      "type": "function",
      "signature": "0x0e7b29bf"
    },
    {
      "constant": true,
      "inputs": [
        {
          "name": "",
          "type": "address"
        }
      ],
      "name": "balances",
      "outputs": [
        {
          "name": "",
          "type": "uint256"
        }
      ],
      "payable": false,
      "stateMutability": "view",
      "type": "function",
      "signature": "0x27e235e3"
    },
    {
      "constant": true,
      "inputs": [],
      "name": "stopped",
      "outputs": [
        {
          "name": "",
          "type": "bool"
        }
      ],
      "payable": false,
      "stateMutability": "view",
      "type": "function",
      "signature": "0x75f12b21"
    },
    {
      "constant": true,
      "inputs": [],
      "name": "owner",
      "outputs": [
        {
          "name": "",
          "type": "address"
        }
      ],
      "payable": false,
      "stateMutability": "view",
      "type": "function",
      "signature": "0x8da5cb5b"
    },
    {
      "constant": true,
      "inputs": [
        {
          "name": "",
          "type": "uint256"
        }
      ],
      "name": "profilesArray",
      "outputs": [
        {
          "name": "",
          "type": "address"
        }
      ],
      "payable": false,
      "stateMutability": "view",
      "type": "function",
      "signature": "0xe2528397"
    },
    {
      "inputs": [
        {
          "name": "_owner",
          "type": "address"
        }
      ],
      "payable": false,
      "stateMutability": "nonpayable",
      "type": "constructor",
      "signature": "constructor"
    },
    {
      "anonymous": false,
      "inputs": [
        {
          "indexed": false,
          "name": "_owner",
          "type": "address"
        },
        {
          "indexed": false,
          "name": "_name",
          "type": "bytes32"
        },
        {
          "indexed": false,
          "name": "_sex",
          "type": "bytes32"
        },
        {
          "indexed": false,
          "name": "_age",
          "type": "uint32"
        },
        {
          "indexed": false,
          "name": "_bio",
          "type": "string"
        },
        {
          "indexed": false,
          "name": "_imageHash",
          "type": "string"
        }
      ],
      "name": "LogCreateProfile",
      "type": "event",
      "signature": "0x77b73aeb54b35d12c511d49829d29e158254f622c00923e60ae327d50f4348e0"
    },
    {
      "anonymous": false,
      "inputs": [
        {
          "indexed": false,
          "name": "_owner",
          "type": "address"
        },
        {
          "indexed": false,
          "name": "_name",
          "type": "bytes32"
        },
        {
          "indexed": false,
          "name": "_sex",
          "type": "bytes32"
        },
        {
          "indexed": false,
          "name": "_age",
          "type": "uint32"
        },
        {
          "indexed": false,
          "name": "_bio",
          "type": "string"
        },
        {
          "indexed": false,
          "name": "_imageHash",
          "type": "string"
        }
      ],
      "name": "LogUpdateProfile",
      "type": "event",
      "signature": "0x0a79e0171d337d97adf00debfcbe97374acd36abd864d956a4c5baefb258264a"
    },
    {
      "anonymous": false,
      "inputs": [
        {
          "indexed": false,
          "name": "_receiver",
          "type": "address"
        },
        {
          "indexed": false,
          "name": "_sender",
          "type": "address"
        },
        {
          "indexed": false,
          "name": "_amount",
          "type": "uint256"
        }
      ],
      "name": "LogGiveDonation",
      "type": "event",
      "signature": "0x464d0c4c3ce31dec90d92888572fd16dc050b0c2292f8472c21065fb88f70a8a"
    },
    {
      "anonymous": false,
      "inputs": [
        {
          "indexed": false,
          "name": "_owner",
          "type": "address"
        },
        {
          "indexed": false,
          "name": "_amount",
          "type": "uint256"
        }
      ],
      "name": "LogWithdrawDonation",
      "type": "event",
      "signature": "0x19525556925aab902610b027b1d7f8039f0abcd868e446a1b28faf07054feb6e"
    },
    {
      "anonymous": false,
      "inputs": [
        {
          "indexed": false,
          "name": "_stopped",
          "type": "bool"
        }
      ],
      "name": "LogToogleContractActive",
      "type": "event",
      "signature": "0x157bc0dffe820c120feeb2c8485d73781b331ef2c701bb5fcb244a0089fc3061"
    },
    {
      "constant": false,
      "inputs": [],
      "name": "toggleContractActive",
      "outputs": [],
      "payable": false,
      "stateMutability": "nonpayable",
      "type": "function",
      "signature": "0x1385d24c"
    },
    {
      "constant": true,
      "inputs": [],
      "name": "getCurrentProfilesSize",
      "outputs": [
        {
          "name": "",
          "type": "uint256"
        }
      ],
      "payable": false,
      "stateMutability": "view",
      "type": "function",
      "signature": "0xb8acad85"
    },
    {
      "constant": true,
      "inputs": [],
      "name": "getProfiles",
      "outputs": [
        {
          "name": "",
          "type": "address[]"
        }
      ],
      "payable": false,
      "stateMutability": "view",
      "type": "function",
      "signature": "0xb2137033"
    },
    {
      "constant": false,
      "inputs": [
        {
          "name": "_name",
          "type": "bytes32"
        },
        {
          "name": "_sex",
          "type": "bytes32"
        },
        {
          "name": "_age",
          "type": "uint32"
        },
        {
          "name": "_bio",
          "type": "string"
        },
        {
          "name": "_imageHash",
          "type": "string"
        }
      ],
      "name": "createProfile",
      "outputs": [],
      "payable": false,
      "stateMutability": "nonpayable",
      "type": "function",
      "signature": "0xbe5e0236"
    },
    {
      "constant": false,
      "inputs": [
        {
          "name": "_name",
          "type": "bytes32"
        },
        {
          "name": "_sex",
          "type": "bytes32"
        },
        {
          "name": "_age",
          "type": "uint32"
        },
        {
          "name": "_bio",
          "type": "string"
        },
        {
          "name": "_imageHash",
          "type": "string"
        }
      ],
      "name": "updateProfile",
      "outputs": [],
      "payable": false,
      "stateMutability": "nonpayable",
      "type": "function",
      "signature": "0x1504e4fc"
    },
    {
      "constant": false,
      "inputs": [
        {
          "name": "_receiver",
          "type": "address"
        }
      ],
      "name": "giveDonation",
      "outputs": [
        {
          "name": "success",
          "type": "bool"
        }
      ],
      "payable": true,
      "stateMutability": "payable",
      "type": "function",
      "signature": "0xffd707b8"
    },
    {
      "constant": false,
      "inputs": [
        {
          "name": "_amount",
          "type": "uint256"
        }
      ],
      "name": "withdrawDonation",
      "outputs": [
        {
          "name": "success",
          "type": "bool"
        }
      ],
      "payable": false,
      "stateMutability": "nonpayable",
      "type": "function",
      "signature": "0x96afccb3"
    },
    {
      "constant": false,
      "inputs": [],
      "name": "destroy",
      "outputs": [],
      "payable": false,
      "stateMutability": "nonpayable",
      "type": "function",
      "signature": "0x83197ef0"
    }
  ],
  "bytecode": "0x608060405260008060006101000a81548160ff02191690831515021790555034801561002a57600080fd5b50604051602080611ce38339810180604052602081101561004a57600080fd5b810190808051906020019092919050505080600060016101000a81548173ffffffffffffffffffffffffffffffffffffffff021916908373ffffffffffffffffffffffffffffffffffffffff16021790555050611c37806100ac6000396000f3fe6080604052600436106100c5576000357c0100000000000000000000000000000000000000000000000000000000900463ffffffff1680630e7b29bf146100ca5780631385d24c146102545780631504e4fc1461026b57806327e235e3146103ee57806375f12b211461045357806383197ef0146104825780638da5cb5b1461049957806396afccb3146104f0578063b213703314610543578063b8acad85146105af578063be5e0236146105da578063e25283971461075d578063ffd707b8146107d8575b600080fd5b3480156100d657600080fd5b50610119600480360360208110156100ed57600080fd5b81019080803573ffffffffffffffffffffffffffffffffffffffff169060200190929190505050610834565b604051808773ffffffffffffffffffffffffffffffffffffffff1673ffffffffffffffffffffffffffffffffffffffff1681526020018681526020018581526020018463ffffffff1663ffffffff1681526020018060200180602001838103835285818151815260200191508051906020019080838360005b838110156101ad578082015181840152602081019050610192565b50505050905090810190601f1680156101da5780820380516001836020036101000a031916815260200191505b50838103825284818151815260200191508051906020019080838360005b838110156102135780820151818401526020810190506101f8565b50505050905090810190601f1680156102405780820380516001836020036101000a031916815260200191505b509850505050505050505060405180910390f35b34801561026057600080fd5b506102696109d0565b005b34801561027757600080fd5b506103ec600480360360a081101561028e57600080fd5b810190808035906020019092919080359060200190929190803563ffffffff169060200190929190803590602001906401000000008111156102cf57600080fd5b8201836020820111156102e157600080fd5b8035906020019184600183028401116401000000008311171561030357600080fd5b91908080601f016020809104026020016040519081016040528093929190818152602001838380828437600081840152601f19601f8201169050808301925050505050505091929192908035906020019064010000000081111561036657600080fd5b82018360208201111561037857600080fd5b8035906020019184600183028401116401000000008311171561039a57600080fd5b91908080601f016020809104026020016040519081016040528093929190818152602001838380828437600081840152601f19601f820116905080830192505050505050509192919290505050610b08565b005b3480156103fa57600080fd5b5061043d6004803603602081101561041157600080fd5b81019080803573ffffffffffffffffffffffffffffffffffffffff169060200190929190505050610f4f565b6040518082815260200191505060405180910390f35b34801561045f57600080fd5b50610468610f67565b604051808215151515815260200191505060405180910390f35b34801561048e57600080fd5b50610497610f79565b005b3480156104a557600080fd5b506104ae611079565b604051808273ffffffffffffffffffffffffffffffffffffffff1673ffffffffffffffffffffffffffffffffffffffff16815260200191505060405180910390f35b3480156104fc57600080fd5b506105296004803603602081101561051357600080fd5b810190808035906020019092919050505061109f565b604051808215151515815260200191505060405180910390f35b34801561054f57600080fd5b506105586112ce565b6040518080602001828103825283818151815260200191508051906020019060200280838360005b8381101561059b578082015181840152602081019050610580565b505050509050019250505060405180910390f35b3480156105bb57600080fd5b506105c461135c565b6040518082815260200191505060405180910390f35b3480156105e657600080fd5b5061075b600480360360a08110156105fd57600080fd5b810190808035906020019092919080359060200190929190803563ffffffff1690602001909291908035906020019064010000000081111561063e57600080fd5b82018360208201111561065057600080fd5b8035906020019184600183028401116401000000008311171561067257600080fd5b91908080601f016020809104026020016040519081016040528093929190818152602001838380828437600081840152601f19601f820116905080830192505050505050509192919290803590602001906401000000008111156106d557600080fd5b8201836020820111156106e757600080fd5b8035906020019184600183028401116401000000008311171561070957600080fd5b91908080601f016020809104026020016040519081016040528093929190818152602001838380828437600081840152601f19601f820116905080830192505050505050509192919290505050611369565b005b34801561076957600080fd5b506107966004803603602081101561078057600080fd5b8101908080359060200190929190505050611815565b604051808273ffffffffffffffffffffffffffffffffffffffff1673ffffffffffffffffffffffffffffffffffffffff16815260200191505060405180910390f35b61081a600480360360208110156107ee57600080fd5b81019080803573ffffffffffffffffffffffffffffffffffffffff169060200190929190505050611853565b604051808215151515815260200191505060405180910390f35b60016020528060005260406000206000915090508060000160009054906101000a900473ffffffffffffffffffffffffffffffffffffffff16908060010154908060020154908060030160009054906101000a900463ffffffff1690806004018054600181600116156101000203166002900480601f0160208091040260200160405190810160405280929190818152602001828054600181600116156101000203166002900480156109285780601f106108fd57610100808354040283529160200191610928565b820191906000526020600020905b81548152906001019060200180831161090b57829003601f168201915b505050505090806005018054600181600116156101000203166002900480601f0160208091040260200160405190810160405280929190818152602001828054600181600116156101000203166002900480156109c65780601f1061099b576101008083540402835291602001916109c6565b820191906000526020600020905b8154815290600101906020018083116109a957829003601f168201915b5050505050905086565b600060019054906101000a900473ffffffffffffffffffffffffffffffffffffffff1673ffffffffffffffffffffffffffffffffffffffff163373ffffffffffffffffffffffffffffffffffffffff16141515610a95576040517f08c379a000000000000000000000000000000000000000000000000000000000815260040180806020018281038252600a8152602001807f4f6e6c79206f776e65720000000000000000000000000000000000000000000081525060200191505060405180910390fd5b6000809054906101000a900460ff16156000806101000a81548160ff0219169083151502179055507f157bc0dffe820c120feeb2c8485d73781b331ef2c701bb5fcb244a0089fc30616000809054906101000a900460ff16604051808215151515815260200191505060405180910390a1565b6000809054906101000a900460ff16151515610b8c576040517f08c379a00000000000000000000000000000000000000000000000000000000081526004018080602001828103825260138152602001807f436f6e74726163742069732073746f707065640000000000000000000000000081525060200191505060405180910390fd5b600073ffffffffffffffffffffffffffffffffffffffff16600160003373ffffffffffffffffffffffffffffffffffffffff1673ffffffffffffffffffffffffffffffffffffffff16815260200190815260200160002060000160009054906101000a900473ffffffffffffffffffffffffffffffffffffffff1673ffffffffffffffffffffffffffffffffffffffff1614151515610c93576040517f08c379a000000000000000000000000000000000000000000000000000000000815260040180806020018281038252601a8152602001807f5573657220646f206e6f742068617320616e206163636f756e7400000000000081525060200191505060405180910390fd5b610c9b611b0d565b60c0604051908101604052803373ffffffffffffffffffffffffffffffffffffffff1681526020018781526020018681526020018563ffffffff16815260200184815260200183815250905080600160003373ffffffffffffffffffffffffffffffffffffffff1673ffffffffffffffffffffffffffffffffffffffff16815260200190815260200160002060008201518160000160006101000a81548173ffffffffffffffffffffffffffffffffffffffff021916908373ffffffffffffffffffffffffffffffffffffffff160217905550602082015181600101556040820151816002015560608201518160030160006101000a81548163ffffffff021916908363ffffffff1602179055506080820151816004019080519060200190610dc5929190611b66565b5060a0820151816005019080519060200190610de2929190611b66565b509050507f0a79e0171d337d97adf00debfcbe97374acd36abd864d956a4c5baefb258264a338787878787604051808773ffffffffffffffffffffffffffffffffffffffff1673ffffffffffffffffffffffffffffffffffffffff1681526020018681526020018581526020018463ffffffff1663ffffffff1681526020018060200180602001838103835285818151815260200191508051906020019080838360005b83811015610ea1578082015181840152602081019050610e86565b50505050905090810190601f168015610ece5780820380516001836020036101000a031916815260200191505b50838103825284818151815260200191508051906020019080838360005b83811015610f07578082015181840152602081019050610eec565b50505050905090810190601f168015610f345780820380516001836020036101000a031916815260200191505b509850505050505050505060405180910390a1505050505050565b60036020528060005260406000206000915090505481565b6000809054906101000a900460ff1681565b600060019054906101000a900473ffffffffffffffffffffffffffffffffffffffff1673ffffffffffffffffffffffffffffffffffffffff163373ffffffffffffffffffffffffffffffffffffffff1614151561103e576040517f08c379a000000000000000000000000000000000000000000000000000000000815260040180806020018281038252600a8152602001807f4f6e6c79206f776e65720000000000000000000000000000000000000000000081525060200191505060405180910390fd5b600060019054906101000a900473ffffffffffffffffffffffffffffffffffffffff1673ffffffffffffffffffffffffffffffffffffffff16ff5b600060019054906101000a900473ffffffffffffffffffffffffffffffffffffffff1681565b600081600360003373ffffffffffffffffffffffffffffffffffffffff1673ffffffffffffffffffffffffffffffffffffffff168152602001908152602001600020541015151561117e576040517f08c379a00000000000000000000000000000000000000000000000000000000081526004018080602001828103825260228152602001807f416d6f756e742073686f756c64206265206c657373207468616e2062616c616e81526020017f636500000000000000000000000000000000000000000000000000000000000081525060400191505060405180910390fd5b6111d082600360003373ffffffffffffffffffffffffffffffffffffffff1673ffffffffffffffffffffffffffffffffffffffff16815260200190815260200160002054611aca90919063ffffffff16565b600360003373ffffffffffffffffffffffffffffffffffffffff1673ffffffffffffffffffffffffffffffffffffffff168152602001908152602001600020819055503373ffffffffffffffffffffffffffffffffffffffff166108fc839081150290604051600060405180830381858888f19350505050158015611259573d6000803e3d6000fd5b507f19525556925aab902610b027b1d7f8039f0abcd868e446a1b28faf07054feb6e3383604051808373ffffffffffffffffffffffffffffffffffffffff1673ffffffffffffffffffffffffffffffffffffffff1681526020018281526020019250505060405180910390a160019050919050565b6060600280548060200260200160405190810160405280929190818152602001828054801561135257602002820191906000526020600020905b8160009054906101000a900473ffffffffffffffffffffffffffffffffffffffff1673ffffffffffffffffffffffffffffffffffffffff1681526020019060010190808311611308575b5050505050905090565b6000600280549050905090565b6000809054906101000a900460ff161515156113ed576040517f08c379a00000000000000000000000000000000000000000000000000000000081526004018080602001828103825260138152602001807f436f6e74726163742069732073746f707065640000000000000000000000000081525060200191505060405180910390fd5b600073ffffffffffffffffffffffffffffffffffffffff16600160003373ffffffffffffffffffffffffffffffffffffffff1673ffffffffffffffffffffffffffffffffffffffff16815260200190815260200160002060000160009054906101000a900473ffffffffffffffffffffffffffffffffffffffff1673ffffffffffffffffffffffffffffffffffffffff161415156114f3576040517f08c379a000000000000000000000000000000000000000000000000000000000815260040180806020018281038252601b8152602001807f5573657220616c72656164792068617320616e206163636f756e74000000000081525060200191505060405180910390fd5b6114fb611b0d565b60c0604051908101604052803373ffffffffffffffffffffffffffffffffffffffff1681526020018781526020018681526020018563ffffffff16815260200184815260200183815250905080600160003373ffffffffffffffffffffffffffffffffffffffff1673ffffffffffffffffffffffffffffffffffffffff16815260200190815260200160002060008201518160000160006101000a81548173ffffffffffffffffffffffffffffffffffffffff021916908373ffffffffffffffffffffffffffffffffffffffff160217905550602082015181600101556040820151816002015560608201518160030160006101000a81548163ffffffff021916908363ffffffff1602179055506080820151816004019080519060200190611625929190611b66565b5060a0820151816005019080519060200190611642929190611b66565b5090505060023390806001815401808255809150509060018203906000526020600020016000909192909190916101000a81548173ffffffffffffffffffffffffffffffffffffffff021916908373ffffffffffffffffffffffffffffffffffffffff160217905550507f77b73aeb54b35d12c511d49829d29e158254f622c00923e60ae327d50f4348e0338787878787604051808773ffffffffffffffffffffffffffffffffffffffff1673ffffffffffffffffffffffffffffffffffffffff1681526020018681526020018581526020018463ffffffff1663ffffffff1681526020018060200180602001838103835285818151815260200191508051906020019080838360005b8381101561176757808201518184015260208101905061174c565b50505050905090810190601f1680156117945780820380516001836020036101000a031916815260200191505b50838103825284818151815260200191508051906020019080838360005b838110156117cd5780820151818401526020810190506117b2565b50505050905090810190601f1680156117fa5780820380516001836020036101000a031916815260200191505b509850505050505050505060405180910390a1505050505050565b60028181548110151561182457fe5b906000526020600020016000915054906101000a900473ffffffffffffffffffffffffffffffffffffffff1681565b60008060009054906101000a900460ff161515156118d9576040517f08c379a00000000000000000000000000000000000000000000000000000000081526004018080602001828103825260138152602001807f436f6e74726163742069732073746f707065640000000000000000000000000081525060200191505060405180910390fd5b6000341115156118e857600080fd5b600073ffffffffffffffffffffffffffffffffffffffff168273ffffffffffffffffffffffffffffffffffffffff161415151561198d576040517f08c379a00000000000000000000000000000000000000000000000000000000081526004018080602001828103825260128152602001807f61646472657373206d757374206578697374000000000000000000000000000081525060200191505060405180910390fd5b6119df34600360008573ffffffffffffffffffffffffffffffffffffffff1673ffffffffffffffffffffffffffffffffffffffff16815260200190815260200160002054611aec90919063ffffffff16565b600360008473ffffffffffffffffffffffffffffffffffffffff1673ffffffffffffffffffffffffffffffffffffffff168152602001908152602001600020819055507f464d0c4c3ce31dec90d92888572fd16dc050b0c2292f8472c21065fb88f70a8a823334604051808473ffffffffffffffffffffffffffffffffffffffff1673ffffffffffffffffffffffffffffffffffffffff1681526020018373ffffffffffffffffffffffffffffffffffffffff1673ffffffffffffffffffffffffffffffffffffffff168152602001828152602001935050505060405180910390a160019050919050565b6000828211151515611adb57600080fd5b600082840390508091505092915050565b6000808284019050838110151515611b0357600080fd5b8091505092915050565b60c060405190810160405280600073ffffffffffffffffffffffffffffffffffffffff1681526020016000801916815260200160008019168152602001600063ffffffff16815260200160608152602001606081525090565b828054600181600116156101000203166002900490600052602060002090601f016020900481019282601f10611ba757805160ff1916838001178555611bd5565b82800160010185558215611bd5579182015b82811115611bd4578251825591602001919060010190611bb9565b5b509050611be29190611be6565b5090565b611c0891905b80821115611c04576000816000905550600101611bec565b5090565b9056fea165627a7a72305820986b2b8a0a38aa806de107da0b11ee5aff027a5e2645c30c8ffc7e862326d23c0029",
  "source": "pragma solidity ^0.5.0;\n\n/** @title Profiles.\n    @author Cristian Espinoza Garner - @crisgarner.\n */\nimport 'openzeppelin-solidity/contracts/math/SafeMath.sol';\n \ncontract Profiles {\n\n     /** @notice Using Open Zeppeling Safe Math.\n      */\n    using SafeMath for uint256;\n\n    /** @notice Logs when a profile is created.\n      */\n    event LogCreateProfile(\n        address _owner,\n        bytes32 _name,\n        bytes32 _sex,\n        uint32 _age,\n        string _bio,\n        string _imageHash\n    );\n\n    /** @notice Logs when a profile is updated.\n      */\n    event LogUpdateProfile(\n        address _owner,\n        bytes32 _name,\n        bytes32 _sex,\n        uint32 _age,\n        string _bio,\n        string _imageHash\n    );\n\n    /** @notice Logs when a donation is given.\n      */\n     event LogGiveDonation(\n        address _receiver,\n        address _sender, \n        uint _amount\n    );\n\n    /** @notice Logs when a donation is withdrawn.\n      */\n     event LogWithdrawDonation(\n        address _owner,\n        uint _amount\n    );\n\n    /** @notice Logs when contract is paused or resumed.\n      */\n    event LogToogleContractActive(\n        bool _stopped\n    );\n\n    struct Profile {\n        address owner; /** @dev Address of the profile creator. */\n        bytes32 name;\n        bytes32 sex;\n        uint32 age;\n        string bio;\n        string imageHash; /** @dev Hash of profile picture saved on IPFS. */\n    }\n\n    /** @dev State variables. \n      */\n    bool public stopped = false; \n    address payable public owner; \n    mapping(address => Profile) public addressToProfile; \n    address[] public profilesArray;\n    mapping(address => uint) public balances;\n\n    /** @notice Constructor sets the as the owner the deployer of the contract.\n      */\n    constructor(address payable _owner) public {\n        owner = _owner;\n    }\n\n    /** @notice Modifier that reverts if the caller is not the owner.\n      */\n    modifier isAdmin() {\n        require(msg.sender == owner, \"Only owner\");\n        _;\n    }\n\n    /** @notice Modifier that reverts if the circuit breaker is active.\n      */\n    modifier stopInEmergency { \n        require(!stopped, \"Contract is stopped\");\n         _;\n    }\n\n    /** @notice Toogles the value of stopped in order to pause functionability of the contract.\n      * @dev Can only be executed by admin and emits a log with the current value of the stopped.\n      */\n    function toggleContractActive() isAdmin public {\n        stopped = !stopped;\n        emit LogToogleContractActive(stopped);\n    }\n\n    /** @notice Gets the size of the profiles array.\n      * @return uint the lenght of ProfilesArray.\n      */\n    function getCurrentProfilesSize() public view returns(uint){\n        return profilesArray.length;\n    }\n\n    /** @notice Gets the array of profiles addresses.\n      * @return address[] the array of profile addresses.\n      */\n    function getProfiles() public view returns (address[] memory) {\n       return profilesArray;\n   }\n\n    /** @notice Creates a profile with user basic information.\n      * @dev emits a log with all the information added and can be disable with circuit breaker.\n      * @param _name  name of the user.\n      * @param _sex sex of the user.\n      * @param _age age of the user.\n      * @param _bio short bio of the user.\n      * @param _imageHash hash of the profile pic of the user.\n      */\n    function createProfile(\n        bytes32 _name,\n        bytes32 _sex,\n        uint32 _age,\n        string memory _bio,\n        string memory _imageHash\n    ) public stopInEmergency {\n        require(addressToProfile[msg.sender].owner == address(0), \"User already has an account\");\n        Profile memory profile = Profile(msg.sender, _name, _sex, _age, _bio,_imageHash);\n        addressToProfile[msg.sender] = profile;\n        profilesArray.push(msg.sender);\n        emit LogCreateProfile(msg.sender,_name,_sex,_age,_bio,_imageHash);\n    }\n\n    /** @notice Updates the profile of a previously registered user.\n      * @dev emits a log with all the information added and can be disable with circuit breaker.\n      * @param _name  name of the user.\n      * @param _sex sex of the user.\n      * @param _age age of the user.\n      * @param _bio short bio of the user.\n      * @param _imageHash hash of the profile pic of the user.\n      */\n    function updateProfile(\n        bytes32 _name,\n        bytes32 _sex,\n        uint32 _age,\n        string memory _bio,\n        string memory _imageHash\n    ) public stopInEmergency{\n        require(addressToProfile[msg.sender].owner != address(0), \"User do not has an account\");\n        Profile memory profile = Profile(msg.sender, _name, _sex, _age, _bio, _imageHash);\n        addressToProfile[msg.sender] = profile;\n        emit LogUpdateProfile(msg.sender,_name,_sex,_age,_bio, _imageHash);\n    }\n\n    /** @notice Gives a donation to a user.\n      * @dev emits a log with all the information added and can be disable with circuit breaker.\n      * @param _receiver name of the donation receiver.\n      */\n    function giveDonation(address payable _receiver)\n\tpublic\n    stopInEmergency\n\tpayable\n\treturns(bool success)\n    {\n        require(msg.value > 0);\n        require(_receiver != address(0), 'address must exist');\n        balances[_receiver] = balances[_receiver].add(msg.value);\n        emit LogGiveDonation(_receiver,msg.sender, msg.value);\n\t    return true;\n    }\n\n    /** @notice Withdraw the donatios of the user.\n      * @dev emits a log with all the information of the withdraw and can be disable with circuit breaker.\n      * @param _amount value that represents how much to withdraw.\n      * @return true if everything was sucessfull.\n      */\n    function withdrawDonation(uint _amount)\n\tpublic\n\treturns(bool success)\n    {\n        require(balances[msg.sender] >= _amount, 'Amount should be less than balance');\n        balances[msg.sender] = balances[msg.sender].sub(_amount);\n        msg.sender.transfer(_amount);\n        emit LogWithdrawDonation(msg.sender, _amount);\n        return true;\n    }\n\n    function destroy() public isAdmin {\n        selfdestruct(owner);\n    }\n}",
  "sourcePath": "/home/crisgarner/Projects/consensys/final-project/contracts/Profiles.sol",
  "compiler": {
    "name": "solc",
    "version": "0.5.0+commit.1d4f565a.Emscripten.clang"
  },
  "schemaVersion": "3.0.0",
  "updatedAt": "2019-01-19T17:25:14.171Z",
  "devdoc": {
    "methods": {
      "createProfile(bytes32,bytes32,uint32,string,string)": {
        "details": "emits a log with all the information added and can be disable with circuit breaker.",
        "params": {
          "_age": "age of the user.",
          "_bio": "short bio of the user.",
          "_imageHash": "hash of the profile pic of the user.",
          "_name": "name of the user.",
          "_sex": "sex of the user."
        }
      },
      "getCurrentProfilesSize()": {
        "return": "uint the lenght of ProfilesArray."
      },
      "getProfiles()": {
        "return": "address[] the array of profile addresses."
      },
      "giveDonation(address)": {
        "details": "emits a log with all the information added and can be disable with circuit breaker.",
        "params": {
          "_receiver": "name of the donation receiver."
        }
      },
      "toggleContractActive()": {
        "details": "Can only be executed by admin and emits a log with the current value of the stopped."
      },
      "updateProfile(bytes32,bytes32,uint32,string,string)": {
        "details": "emits a log with all the information added and can be disable with circuit breaker.",
        "params": {
          "_age": "age of the user.",
          "_bio": "short bio of the user.",
          "_imageHash": "hash of the profile pic of the user.",
          "_name": "name of the user.",
          "_sex": "sex of the user."
        }
      },
      "withdrawDonation(uint256)": {
        "details": "emits a log with all the information of the withdraw and can be disable with circuit breaker.",
        "params": {
          "_amount": "value that represents how much to withdraw."
        },
        "return": "true if everything was sucessfull."
      }
    }
  },
  "userdoc": {
    "methods": {
      "constructor": "Constructor sets the as the owner the deployer of the contract.",
      "createProfile(bytes32,bytes32,uint32,string,string)": {
        "notice": "Creates a profile with user basic information."
      },
      "getCurrentProfilesSize()": {
        "notice": "Gets the size of the profiles array."
      },
      "getProfiles()": {
        "notice": "Gets the array of profiles addresses."
      },
      "giveDonation(address)": {
        "notice": "Gives a donation to a user."
      },
      "toggleContractActive()": {
        "notice": "Toogles the value of stopped in order to pause functionability of the contract."
      },
      "updateProfile(bytes32,bytes32,uint32,string,string)": {
        "notice": "Updates the profile of a previously registered user."
      },
      "withdrawDonation(uint256)": {
        "notice": "Withdraw the donatios of the user."
      }
    }
  }
}