{
  "contractName": "Profiles",
  "abi": [
    {
      "constant": true,
      "inputs": [
        {
          "name": "",
          "type": "address"
        }
      ],
      "name": "addressToProfile",
      "outputs": [
        {
          "name": "owner",
          "type": "address"
        },
        {
          "name": "name",
          "type": "bytes32"
        },
        {
          "name": "sex",
          "type": "bytes32"
        },
        {
          "name": "age",
          "type": "uint32"
        },
        {
          "name": "bio",
          "type": "string"
        },
        {
          "name": "imageHash",
          "type": "string"
        }
      ],
      "payable": false,
      "stateMutability": "view",
      "type": "function",
      "signature": "0x0e7b29bf"
    },
    {
      "constant": true,
      "inputs": [],
      "name": "owner",
      "outputs": [
        {
          "name": "",
          "type": "address"
        }
      ],
      "payable": false,
      "stateMutability": "view",
      "type": "function",
      "signature": "0x8da5cb5b"
    },
    {
      "inputs": [
        {
          "name": "_owner",
          "type": "address"
        }
      ],
      "payable": false,
      "stateMutability": "nonpayable",
      "type": "constructor",
      "signature": "constructor"
    },
    {
      "anonymous": false,
      "inputs": [
        {
          "indexed": false,
          "name": "_owner",
          "type": "address"
        },
        {
          "indexed": false,
          "name": "_name",
          "type": "bytes32"
        },
        {
          "indexed": false,
          "name": "_sex",
          "type": "bytes32"
        },
        {
          "indexed": false,
          "name": "_age",
          "type": "uint32"
        },
        {
          "indexed": false,
          "name": "_bio",
          "type": "string"
        },
        {
          "indexed": false,
          "name": "_imageHash",
          "type": "string"
        }
      ],
      "name": "LogCreateProfile",
      "type": "event",
      "signature": "0x77b73aeb54b35d12c511d49829d29e158254f622c00923e60ae327d50f4348e0"
    },
    {
      "anonymous": false,
      "inputs": [
        {
          "indexed": false,
          "name": "_owner",
          "type": "address"
        },
        {
          "indexed": false,
          "name": "_name",
          "type": "bytes32"
        },
        {
          "indexed": false,
          "name": "_sex",
          "type": "bytes32"
        },
        {
          "indexed": false,
          "name": "_age",
          "type": "uint32"
        },
        {
          "indexed": false,
          "name": "_bio",
          "type": "string"
        },
        {
          "indexed": false,
          "name": "_imageHash",
          "type": "string"
        }
      ],
      "name": "LogUpdateProfile",
      "type": "event",
      "signature": "0x0a79e0171d337d97adf00debfcbe97374acd36abd864d956a4c5baefb258264a"
    },
    {
      "constant": true,
      "inputs": [],
      "name": "getCurrentProfilesSize",
      "outputs": [
        {
          "name": "",
          "type": "uint256"
        }
      ],
      "payable": false,
      "stateMutability": "view",
      "type": "function",
      "signature": "0xb8acad85"
    },
    {
      "constant": false,
      "inputs": [
        {
          "name": "_name",
          "type": "bytes32"
        },
        {
          "name": "_sex",
          "type": "bytes32"
        },
        {
          "name": "_age",
          "type": "uint32"
        },
        {
          "name": "_bio",
          "type": "string"
        },
        {
          "name": "_imageHash",
          "type": "string"
        }
      ],
      "name": "createProfile",
      "outputs": [],
      "payable": false,
      "stateMutability": "nonpayable",
      "type": "function",
      "signature": "0xbe5e0236"
    },
    {
      "constant": false,
      "inputs": [
        {
          "name": "_name",
          "type": "bytes32"
        },
        {
          "name": "_sex",
          "type": "bytes32"
        },
        {
          "name": "_age",
          "type": "uint32"
        },
        {
          "name": "_bio",
          "type": "string"
        },
        {
          "name": "_imageHash",
          "type": "string"
        }
      ],
      "name": "updateProfile",
      "outputs": [],
      "payable": false,
      "stateMutability": "nonpayable",
      "type": "function",
      "signature": "0x1504e4fc"
    }
  ],
  "bytecode": "0x608060405234801561001057600080fd5b506040516020806110f88339810180604052602081101561003057600080fd5b8101908080519060200190929190505050806000806101000a81548173ffffffffffffffffffffffffffffffffffffffff021916908373ffffffffffffffffffffffffffffffffffffffff16021790555050611067806100916000396000f3fe60806040526004361061006d576000357c0100000000000000000000000000000000000000000000000000000000900463ffffffff1680630e7b29bf146100725780631504e4fc146101fc5780638da5cb5b1461037f578063b8acad85146103d6578063be5e023614610401575b600080fd5b34801561007e57600080fd5b506100c16004803603602081101561009557600080fd5b81019080803573ffffffffffffffffffffffffffffffffffffffff169060200190929190505050610584565b604051808773ffffffffffffffffffffffffffffffffffffffff1673ffffffffffffffffffffffffffffffffffffffff1681526020018681526020018581526020018463ffffffff1663ffffffff1681526020018060200180602001838103835285818151815260200191508051906020019080838360005b8381101561015557808201518184015260208101905061013a565b50505050905090810190601f1680156101825780820380516001836020036101000a031916815260200191505b50838103825284818151815260200191508051906020019080838360005b838110156101bb5780820151818401526020810190506101a0565b50505050905090810190601f1680156101e85780820380516001836020036101000a031916815260200191505b509850505050505050505060405180910390f35b34801561020857600080fd5b5061037d600480360360a081101561021f57600080fd5b810190808035906020019092919080359060200190929190803563ffffffff1690602001909291908035906020019064010000000081111561026057600080fd5b82018360208201111561027257600080fd5b8035906020019184600183028401116401000000008311171561029457600080fd5b91908080601f016020809104026020016040519081016040528093929190818152602001838380828437600081840152601f19601f820116905080830192505050505050509192919290803590602001906401000000008111156102f757600080fd5b82018360208201111561030957600080fd5b8035906020019184600183028401116401000000008311171561032b57600080fd5b91908080601f016020809104026020016040519081016040528093929190818152602001838380828437600081840152601f19601f820116905080830192505050505050509192919290505050610720565b005b34801561038b57600080fd5b50610394610ae3565b604051808273ffffffffffffffffffffffffffffffffffffffff1673ffffffffffffffffffffffffffffffffffffffff16815260200191505060405180910390f35b3480156103e257600080fd5b506103eb610b08565b6040518082815260200191505060405180910390f35b34801561040d57600080fd5b50610582600480360360a081101561042457600080fd5b810190808035906020019092919080359060200190929190803563ffffffff1690602001909291908035906020019064010000000081111561046557600080fd5b82018360208201111561047757600080fd5b8035906020019184600183028401116401000000008311171561049957600080fd5b91908080601f016020809104026020016040519081016040528093929190818152602001838380828437600081840152601f19601f820116905080830192505050505050509192919290803590602001906401000000008111156104fc57600080fd5b82018360208201111561050e57600080fd5b8035906020019184600183028401116401000000008311171561053057600080fd5b91908080601f016020809104026020016040519081016040528093929190818152602001838380828437600081840152601f19601f820116905080830192505050505050509192919290505050610b15565b005b60016020528060005260406000206000915090508060000160009054906101000a900473ffffffffffffffffffffffffffffffffffffffff16908060010154908060020154908060030160009054906101000a900463ffffffff1690806004018054600181600116156101000203166002900480601f0160208091040260200160405190810160405280929190818152602001828054600181600116156101000203166002900480156106785780601f1061064d57610100808354040283529160200191610678565b820191906000526020600020905b81548152906001019060200180831161065b57829003601f168201915b505050505090806005018054600181600116156101000203166002900480601f0160208091040260200160405190810160405280929190818152602001828054600181600116156101000203166002900480156107165780601f106106eb57610100808354040283529160200191610716565b820191906000526020600020905b8154815290600101906020018083116106f957829003601f168201915b5050505050905086565b600073ffffffffffffffffffffffffffffffffffffffff16600160003373ffffffffffffffffffffffffffffffffffffffff1673ffffffffffffffffffffffffffffffffffffffff16815260200190815260200160002060000160009054906101000a900473ffffffffffffffffffffffffffffffffffffffff1673ffffffffffffffffffffffffffffffffffffffff1614151515610827576040517f08c379a000000000000000000000000000000000000000000000000000000000815260040180806020018281038252601a8152602001807f5573657220646f206e6f742068617320616e206163636f756e7400000000000081525060200191505060405180910390fd5b61082f610f3d565b60c0604051908101604052803373ffffffffffffffffffffffffffffffffffffffff1681526020018781526020018681526020018563ffffffff16815260200184815260200183815250905080600160003373ffffffffffffffffffffffffffffffffffffffff1673ffffffffffffffffffffffffffffffffffffffff16815260200190815260200160002060008201518160000160006101000a81548173ffffffffffffffffffffffffffffffffffffffff021916908373ffffffffffffffffffffffffffffffffffffffff160217905550602082015181600101556040820151816002015560608201518160030160006101000a81548163ffffffff021916908363ffffffff1602179055506080820151816004019080519060200190610959929190610f96565b5060a0820151816005019080519060200190610976929190610f96565b509050507f0a79e0171d337d97adf00debfcbe97374acd36abd864d956a4c5baefb258264a338787878787604051808773ffffffffffffffffffffffffffffffffffffffff1673ffffffffffffffffffffffffffffffffffffffff1681526020018681526020018581526020018463ffffffff1663ffffffff1681526020018060200180602001838103835285818151815260200191508051906020019080838360005b83811015610a35578082015181840152602081019050610a1a565b50505050905090810190601f168015610a625780820380516001836020036101000a031916815260200191505b50838103825284818151815260200191508051906020019080838360005b83811015610a9b578082015181840152602081019050610a80565b50505050905090810190601f168015610ac85780820380516001836020036101000a031916815260200191505b509850505050505050505060405180910390a1505050505050565b6000809054906101000a900473ffffffffffffffffffffffffffffffffffffffff1681565b6000600280549050905090565b600073ffffffffffffffffffffffffffffffffffffffff16600160003373ffffffffffffffffffffffffffffffffffffffff1673ffffffffffffffffffffffffffffffffffffffff16815260200190815260200160002060000160009054906101000a900473ffffffffffffffffffffffffffffffffffffffff1673ffffffffffffffffffffffffffffffffffffffff16141515610c1b576040517f08c379a000000000000000000000000000000000000000000000000000000000815260040180806020018281038252601b8152602001807f5573657220616c72656164792068617320616e206163636f756e74000000000081525060200191505060405180910390fd5b610c23610f3d565b60c0604051908101604052803373ffffffffffffffffffffffffffffffffffffffff1681526020018781526020018681526020018563ffffffff16815260200184815260200183815250905080600160003373ffffffffffffffffffffffffffffffffffffffff1673ffffffffffffffffffffffffffffffffffffffff16815260200190815260200160002060008201518160000160006101000a81548173ffffffffffffffffffffffffffffffffffffffff021916908373ffffffffffffffffffffffffffffffffffffffff160217905550602082015181600101556040820151816002015560608201518160030160006101000a81548163ffffffff021916908363ffffffff1602179055506080820151816004019080519060200190610d4d929190610f96565b5060a0820151816005019080519060200190610d6a929190610f96565b5090505060023390806001815401808255809150509060018203906000526020600020016000909192909190916101000a81548173ffffffffffffffffffffffffffffffffffffffff021916908373ffffffffffffffffffffffffffffffffffffffff160217905550507f77b73aeb54b35d12c511d49829d29e158254f622c00923e60ae327d50f4348e0338787878787604051808773ffffffffffffffffffffffffffffffffffffffff1673ffffffffffffffffffffffffffffffffffffffff1681526020018681526020018581526020018463ffffffff1663ffffffff1681526020018060200180602001838103835285818151815260200191508051906020019080838360005b83811015610e8f578082015181840152602081019050610e74565b50505050905090810190601f168015610ebc5780820380516001836020036101000a031916815260200191505b50838103825284818151815260200191508051906020019080838360005b83811015610ef5578082015181840152602081019050610eda565b50505050905090810190601f168015610f225780820380516001836020036101000a031916815260200191505b509850505050505050505060405180910390a1505050505050565b60c060405190810160405280600073ffffffffffffffffffffffffffffffffffffffff1681526020016000801916815260200160008019168152602001600063ffffffff16815260200160608152602001606081525090565b828054600181600116156101000203166002900490600052602060002090601f016020900481019282601f10610fd757805160ff1916838001178555611005565b82800160010185558215611005579182015b82811115611004578251825591602001919060010190610fe9565b5b5090506110129190611016565b5090565b61103891905b8082111561103457600081600090555060010161101c565b5090565b9056fea165627a7a723058203b67ce2fa1cb2ea5c3cb741e11aea0bab5e05bc9681ca5b1cb5a194aa9a97e1f0029",
  "source": "pragma solidity ^0.5.0;\n\ncontract Profiles {\n\n    event LogCreateProfile(\n        address _owner,\n        bytes32 _name,\n        bytes32 _sex,\n        uint32 _age,\n        string _bio,\n        string _imageHash\n    );\n\n    event LogUpdateProfile(\n        address _owner,\n        bytes32 _name,\n        bytes32 _sex,\n        uint32 _age,\n        string _bio,\n        string _imageHash\n    );\n\n    struct Profile {\n        address owner;\n        bytes32 name;\n        bytes32 sex;\n        uint32 age;\n        string bio;\n        string imageHash;\n    }\n\n    address public owner;\n    mapping(address => Profile) public addressToProfile;\n    address[] profilesArray;\n\n    constructor(address _owner) public {\n        owner = _owner;\n    }\n\n    function getCurrentProfilesSize() public view returns(uint){\n        return profilesArray.length;\n    }\n\n    function createProfile(\n        bytes32 _name,\n        bytes32 _sex,\n        uint32 _age,\n        string memory _bio,\n        string memory _imageHash\n    ) public {\n        require(addressToProfile[msg.sender].owner == address(0), \"User already has an account\");\n        Profile memory profile = Profile(msg.sender, _name, _sex, _age, _bio,_imageHash);\n        addressToProfile[msg.sender] = profile;\n        profilesArray.push(msg.sender);\n        emit LogCreateProfile(msg.sender,_name,_sex,_age,_bio,_imageHash);\n    }\n\n    function updateProfile(\n        bytes32 _name,\n        bytes32 _sex,\n        uint32 _age,\n        string memory _bio,\n        string memory _imageHash\n    ) public {\n        require(addressToProfile[msg.sender].owner != address(0), \"User do not has an account\");\n        Profile memory profile = Profile(msg.sender, _name, _sex, _age, _bio, _imageHash);\n        addressToProfile[msg.sender] = profile;\n        emit LogUpdateProfile(msg.sender,_name,_sex,_age,_bio, _imageHash);\n    }\n\n}",
  "sourcePath": "/home/crisgarner/Projects/consensys/final-project/contracts/Profiles.sol",
  "compiler": {
    "name": "solc",
    "version": "0.5.0+commit.1d4f565a.Emscripten.clang"
  },
  "schemaVersion": "3.0.0",
  "updatedAt": "2019-01-06T02:31:14.267Z",
  "devdoc": {
    "methods": {}
  },
  "userdoc": {
    "methods": {}
  }
}