{
  "contractName": "Profiles",
  "abi": [
    {
      "constant": true,
      "inputs": [
        {
          "name": "",
          "type": "address"
        }
      ],
      "name": "addressToProfile",
      "outputs": [
        {
          "name": "owner",
          "type": "address"
        },
        {
          "name": "name",
          "type": "bytes32"
        },
        {
          "name": "sex",
          "type": "bytes32"
        },
        {
          "name": "age",
          "type": "uint32"
        },
        {
          "name": "bio",
          "type": "string"
        },
        {
          "name": "imageHash",
          "type": "string"
        }
      ],
      "payable": false,
      "stateMutability": "view",
      "type": "function",
      "signature": "0x0e7b29bf"
    },
    {
      "anonymous": false,
      "inputs": [
        {
          "indexed": false,
          "name": "_owner",
          "type": "address"
        },
        {
          "indexed": false,
          "name": "_name",
          "type": "bytes32"
        },
        {
          "indexed": false,
          "name": "_sex",
          "type": "bytes32"
        },
        {
          "indexed": false,
          "name": "_age",
          "type": "uint32"
        },
        {
          "indexed": false,
          "name": "_bio",
          "type": "string"
        },
        {
          "indexed": false,
          "name": "_imageHash",
          "type": "string"
        }
      ],
      "name": "LogCreateProfile",
      "type": "event",
      "signature": "0x77b73aeb54b35d12c511d49829d29e158254f622c00923e60ae327d50f4348e0"
    },
    {
      "anonymous": false,
      "inputs": [
        {
          "indexed": false,
          "name": "_owner",
          "type": "address"
        },
        {
          "indexed": false,
          "name": "_name",
          "type": "bytes32"
        },
        {
          "indexed": false,
          "name": "_sex",
          "type": "bytes32"
        },
        {
          "indexed": false,
          "name": "_age",
          "type": "uint32"
        },
        {
          "indexed": false,
          "name": "_bio",
          "type": "string"
        },
        {
          "indexed": false,
          "name": "_imageHash",
          "type": "string"
        }
      ],
      "name": "LogUpdateProfile",
      "type": "event",
      "signature": "0x0a79e0171d337d97adf00debfcbe97374acd36abd864d956a4c5baefb258264a"
    },
    {
      "constant": true,
      "inputs": [],
      "name": "getCurrentProfilesSize",
      "outputs": [
        {
          "name": "",
          "type": "uint256"
        }
      ],
      "payable": false,
      "stateMutability": "view",
      "type": "function",
      "signature": "0xb8acad85"
    },
    {
      "constant": false,
      "inputs": [
        {
          "name": "_name",
          "type": "bytes32"
        },
        {
          "name": "_sex",
          "type": "bytes32"
        },
        {
          "name": "_age",
          "type": "uint32"
        },
        {
          "name": "_bio",
          "type": "string"
        },
        {
          "name": "_imageHash",
          "type": "string"
        }
      ],
      "name": "createProfile",
      "outputs": [],
      "payable": false,
      "stateMutability": "nonpayable",
      "type": "function",
      "signature": "0xbe5e0236"
    },
    {
      "constant": false,
      "inputs": [
        {
          "name": "_name",
          "type": "bytes32"
        },
        {
          "name": "_sex",
          "type": "bytes32"
        },
        {
          "name": "_age",
          "type": "uint32"
        },
        {
          "name": "_bio",
          "type": "string"
        },
        {
          "name": "_imageHash",
          "type": "string"
        }
      ],
      "name": "updateProfile",
      "outputs": [],
      "payable": false,
      "stateMutability": "nonpayable",
      "type": "function",
      "signature": "0x1504e4fc"
    }
  ],
  "bytecode": "0x608060405234801561001057600080fd5b50610fdc806100206000396000f3fe608060405260043610610062576000357c0100000000000000000000000000000000000000000000000000000000900463ffffffff1680630e7b29bf146100675780631504e4fc146101f1578063b8acad8514610374578063be5e02361461039f575b600080fd5b34801561007357600080fd5b506100b66004803603602081101561008a57600080fd5b81019080803573ffffffffffffffffffffffffffffffffffffffff169060200190929190505050610522565b604051808773ffffffffffffffffffffffffffffffffffffffff1673ffffffffffffffffffffffffffffffffffffffff1681526020018681526020018581526020018463ffffffff1663ffffffff1681526020018060200180602001838103835285818151815260200191508051906020019080838360005b8381101561014a57808201518184015260208101905061012f565b50505050905090810190601f1680156101775780820380516001836020036101000a031916815260200191505b50838103825284818151815260200191508051906020019080838360005b838110156101b0578082015181840152602081019050610195565b50505050905090810190601f1680156101dd5780820380516001836020036101000a031916815260200191505b509850505050505050505060405180910390f35b3480156101fd57600080fd5b50610372600480360360a081101561021457600080fd5b810190808035906020019092919080359060200190929190803563ffffffff1690602001909291908035906020019064010000000081111561025557600080fd5b82018360208201111561026757600080fd5b8035906020019184600183028401116401000000008311171561028957600080fd5b91908080601f016020809104026020016040519081016040528093929190818152602001838380828437600081840152601f19601f820116905080830192505050505050509192919290803590602001906401000000008111156102ec57600080fd5b8201836020820111156102fe57600080fd5b8035906020019184600183028401116401000000008311171561032057600080fd5b91908080601f016020809104026020016040519081016040528093929190818152602001838380828437600081840152601f19601f8201169050808301925050505050505091929192905050506106be565b005b34801561038057600080fd5b50610389610a7f565b6040518082815260200191505060405180910390f35b3480156103ab57600080fd5b50610520600480360360a08110156103c257600080fd5b810190808035906020019092919080359060200190929190803563ffffffff1690602001909291908035906020019064010000000081111561040357600080fd5b82018360208201111561041557600080fd5b8035906020019184600183028401116401000000008311171561043757600080fd5b91908080601f016020809104026020016040519081016040528093929190818152602001838380828437600081840152601f19601f8201169050808301925050505050505091929192908035906020019064010000000081111561049a57600080fd5b8201836020820111156104ac57600080fd5b803590602001918460018302840111640100000000831117156104ce57600080fd5b91908080601f016020809104026020016040519081016040528093929190818152602001838380828437600081840152601f19601f820116905080830192505050505050509192919290505050610a8c565b005b60006020528060005260406000206000915090508060000160009054906101000a900473ffffffffffffffffffffffffffffffffffffffff16908060010154908060020154908060030160009054906101000a900463ffffffff1690806004018054600181600116156101000203166002900480601f0160208091040260200160405190810160405280929190818152602001828054600181600116156101000203166002900480156106165780601f106105eb57610100808354040283529160200191610616565b820191906000526020600020905b8154815290600101906020018083116105f957829003601f168201915b505050505090806005018054600181600116156101000203166002900480601f0160208091040260200160405190810160405280929190818152602001828054600181600116156101000203166002900480156106b45780601f10610689576101008083540402835291602001916106b4565b820191906000526020600020905b81548152906001019060200180831161069757829003601f168201915b5050505050905086565b600073ffffffffffffffffffffffffffffffffffffffff166000803373ffffffffffffffffffffffffffffffffffffffff1673ffffffffffffffffffffffffffffffffffffffff16815260200190815260200160002060000160009054906101000a900473ffffffffffffffffffffffffffffffffffffffff1673ffffffffffffffffffffffffffffffffffffffff16141515156107c4576040517f08c379a000000000000000000000000000000000000000000000000000000000815260040180806020018281038252601a8152602001807f5573657220646f206e6f742068617320616e206163636f756e7400000000000081525060200191505060405180910390fd5b6107cc610eb2565b60c0604051908101604052803373ffffffffffffffffffffffffffffffffffffffff1681526020018781526020018681526020018563ffffffff168152602001848152602001838152509050806000803373ffffffffffffffffffffffffffffffffffffffff1673ffffffffffffffffffffffffffffffffffffffff16815260200190815260200160002060008201518160000160006101000a81548173ffffffffffffffffffffffffffffffffffffffff021916908373ffffffffffffffffffffffffffffffffffffffff160217905550602082015181600101556040820151816002015560608201518160030160006101000a81548163ffffffff021916908363ffffffff16021790555060808201518160040190805190602001906108f5929190610f0b565b5060a0820151816005019080519060200190610912929190610f0b565b509050507f0a79e0171d337d97adf00debfcbe97374acd36abd864d956a4c5baefb258264a338787878787604051808773ffffffffffffffffffffffffffffffffffffffff1673ffffffffffffffffffffffffffffffffffffffff1681526020018681526020018581526020018463ffffffff1663ffffffff1681526020018060200180602001838103835285818151815260200191508051906020019080838360005b838110156109d15780820151818401526020810190506109b6565b50505050905090810190601f1680156109fe5780820380516001836020036101000a031916815260200191505b50838103825284818151815260200191508051906020019080838360005b83811015610a37578082015181840152602081019050610a1c565b50505050905090810190601f168015610a645780820380516001836020036101000a031916815260200191505b509850505050505050505060405180910390a1505050505050565b6000600180549050905090565b600073ffffffffffffffffffffffffffffffffffffffff166000803373ffffffffffffffffffffffffffffffffffffffff1673ffffffffffffffffffffffffffffffffffffffff16815260200190815260200160002060000160009054906101000a900473ffffffffffffffffffffffffffffffffffffffff1673ffffffffffffffffffffffffffffffffffffffff16141515610b91576040517f08c379a000000000000000000000000000000000000000000000000000000000815260040180806020018281038252601b8152602001807f5573657220616c72656164792068617320616e206163636f756e74000000000081525060200191505060405180910390fd5b610b99610eb2565b60c0604051908101604052803373ffffffffffffffffffffffffffffffffffffffff1681526020018781526020018681526020018563ffffffff168152602001848152602001838152509050806000803373ffffffffffffffffffffffffffffffffffffffff1673ffffffffffffffffffffffffffffffffffffffff16815260200190815260200160002060008201518160000160006101000a81548173ffffffffffffffffffffffffffffffffffffffff021916908373ffffffffffffffffffffffffffffffffffffffff160217905550602082015181600101556040820151816002015560608201518160030160006101000a81548163ffffffff021916908363ffffffff1602179055506080820151816004019080519060200190610cc2929190610f0b565b5060a0820151816005019080519060200190610cdf929190610f0b565b5090505060013390806001815401808255809150509060018203906000526020600020016000909192909190916101000a81548173ffffffffffffffffffffffffffffffffffffffff021916908373ffffffffffffffffffffffffffffffffffffffff160217905550507f77b73aeb54b35d12c511d49829d29e158254f622c00923e60ae327d50f4348e0338787878787604051808773ffffffffffffffffffffffffffffffffffffffff1673ffffffffffffffffffffffffffffffffffffffff1681526020018681526020018581526020018463ffffffff1663ffffffff1681526020018060200180602001838103835285818151815260200191508051906020019080838360005b83811015610e04578082015181840152602081019050610de9565b50505050905090810190601f168015610e315780820380516001836020036101000a031916815260200191505b50838103825284818151815260200191508051906020019080838360005b83811015610e6a578082015181840152602081019050610e4f565b50505050905090810190601f168015610e975780820380516001836020036101000a031916815260200191505b509850505050505050505060405180910390a1505050505050565b60c060405190810160405280600073ffffffffffffffffffffffffffffffffffffffff1681526020016000801916815260200160008019168152602001600063ffffffff16815260200160608152602001606081525090565b828054600181600116156101000203166002900490600052602060002090601f016020900481019282601f10610f4c57805160ff1916838001178555610f7a565b82800160010185558215610f7a579182015b82811115610f79578251825591602001919060010190610f5e565b5b509050610f879190610f8b565b5090565b610fad91905b80821115610fa9576000816000905550600101610f91565b5090565b9056fea165627a7a723058208aef9e1292a2ee188980524d3910e386ea80bce3779bd05762a0e577ad7d018b0029",
  "source": "pragma solidity ^0.5.0;\n\ncontract Profiles {\n\n    event LogCreateProfile(\n        address _owner,\n        bytes32 _name,\n        bytes32 _sex,\n        uint32 _age,\n        string _bio,\n        string _imageHash\n    );\n\n    event LogUpdateProfile(\n        address _owner,\n        bytes32 _name,\n        bytes32 _sex,\n        uint32 _age,\n        string _bio,\n        string _imageHash\n    );\n\n    struct Profile {\n        address owner;\n        bytes32 name;\n        bytes32 sex;\n        uint32 age;\n        string bio;\n        string imageHash;\n    }\n\n    mapping(address => Profile) public addressToProfile;\n    address[] profilesArray;\n\n    function getCurrentProfilesSize() public view returns(uint){\n        return profilesArray.length;\n    }\n\n    function createProfile(\n        bytes32 _name,\n        bytes32 _sex,\n        uint32 _age,\n        string memory _bio,\n        string memory _imageHash\n    ) public {\n        require(addressToProfile[msg.sender].owner == address(0), \"User already has an account\");\n        Profile memory profile = Profile(msg.sender, _name, _sex, _age, _bio,_imageHash);\n        addressToProfile[msg.sender] = profile;\n        profilesArray.push(msg.sender);\n        emit LogCreateProfile(msg.sender,_name,_sex,_age,_bio,_imageHash);\n    }\n\n    function updateProfile(\n        bytes32 _name,\n        bytes32 _sex,\n        uint32 _age,\n        string memory _bio,\n        string memory _imageHash\n    ) public {\n        require(addressToProfile[msg.sender].owner != address(0), \"User do not has an account\");\n        Profile memory profile = Profile(msg.sender, _name, _sex, _age, _bio, _imageHash);\n        addressToProfile[msg.sender] = profile;\n        emit LogUpdateProfile(msg.sender,_name,_sex,_age,_bio, _imageHash);\n    }\n\n}",
  "sourcePath": "/home/crisgarner/Projects/consensys/final-project/contracts/Profiles.sol",
  "compiler": {
    "name": "solc",
    "version": "0.5.0+commit.1d4f565a.Emscripten.clang"
  },
  "schemaVersion": "3.0.0",
  "updatedAt": "2019-01-04T17:56:39.710Z",
  "devdoc": {
    "methods": {}
  },
  "userdoc": {
    "methods": {}
  }
}