{
  "contractName": "Profiles",
  "abi": [
    {
      "constant": true,
      "inputs": [
        {
          "name": "",
          "type": "address"
        }
      ],
      "name": "addressToProfile",
      "outputs": [
        {
          "name": "owner",
          "type": "address"
        },
        {
          "name": "name",
          "type": "bytes32"
        },
        {
          "name": "sex",
          "type": "bytes32"
        },
        {
          "name": "age",
          "type": "uint32"
        },
        {
          "name": "bio",
          "type": "string"
        },
        {
          "name": "imageHash",
          "type": "string"
        }
      ],
      "payable": false,
      "stateMutability": "view",
      "type": "function",
      "signature": "0x0e7b29bf"
    },
    {
      "constant": true,
      "inputs": [],
      "name": "owner",
      "outputs": [
        {
          "name": "",
          "type": "address"
        }
      ],
      "payable": false,
      "stateMutability": "view",
      "type": "function",
      "signature": "0x8da5cb5b"
    },
    {
      "constant": true,
      "inputs": [
        {
          "name": "",
          "type": "uint256"
        }
      ],
      "name": "profilesArray",
      "outputs": [
        {
          "name": "",
          "type": "address"
        }
      ],
      "payable": false,
      "stateMutability": "view",
      "type": "function",
      "signature": "0xe2528397"
    },
    {
      "inputs": [
        {
          "name": "_owner",
          "type": "address"
        }
      ],
      "payable": false,
      "stateMutability": "nonpayable",
      "type": "constructor",
      "signature": "constructor"
    },
    {
      "anonymous": false,
      "inputs": [
        {
          "indexed": false,
          "name": "_owner",
          "type": "address"
        },
        {
          "indexed": false,
          "name": "_name",
          "type": "bytes32"
        },
        {
          "indexed": false,
          "name": "_sex",
          "type": "bytes32"
        },
        {
          "indexed": false,
          "name": "_age",
          "type": "uint32"
        },
        {
          "indexed": false,
          "name": "_bio",
          "type": "string"
        },
        {
          "indexed": false,
          "name": "_imageHash",
          "type": "string"
        }
      ],
      "name": "LogCreateProfile",
      "type": "event",
      "signature": "0x77b73aeb54b35d12c511d49829d29e158254f622c00923e60ae327d50f4348e0"
    },
    {
      "anonymous": false,
      "inputs": [
        {
          "indexed": false,
          "name": "_owner",
          "type": "address"
        },
        {
          "indexed": false,
          "name": "_name",
          "type": "bytes32"
        },
        {
          "indexed": false,
          "name": "_sex",
          "type": "bytes32"
        },
        {
          "indexed": false,
          "name": "_age",
          "type": "uint32"
        },
        {
          "indexed": false,
          "name": "_bio",
          "type": "string"
        },
        {
          "indexed": false,
          "name": "_imageHash",
          "type": "string"
        }
      ],
      "name": "LogUpdateProfile",
      "type": "event",
      "signature": "0x0a79e0171d337d97adf00debfcbe97374acd36abd864d956a4c5baefb258264a"
    },
    {
      "anonymous": false,
      "inputs": [
        {
          "indexed": false,
          "name": "_stopped",
          "type": "bool"
        }
      ],
      "name": "LogToogleContractActive",
      "type": "event",
      "signature": "0x157bc0dffe820c120feeb2c8485d73781b331ef2c701bb5fcb244a0089fc3061"
    },
    {
      "constant": false,
      "inputs": [],
      "name": "toggleContractActive",
      "outputs": [],
      "payable": false,
      "stateMutability": "nonpayable",
      "type": "function",
      "signature": "0x1385d24c"
    },
    {
      "constant": true,
      "inputs": [],
      "name": "getCurrentProfilesSize",
      "outputs": [
        {
          "name": "",
          "type": "uint256"
        }
      ],
      "payable": false,
      "stateMutability": "view",
      "type": "function",
      "signature": "0xb8acad85"
    },
    {
      "constant": true,
      "inputs": [],
      "name": "getProfiles",
      "outputs": [
        {
          "name": "",
          "type": "address[]"
        }
      ],
      "payable": false,
      "stateMutability": "view",
      "type": "function",
      "signature": "0xb2137033"
    },
    {
      "constant": false,
      "inputs": [
        {
          "name": "_name",
          "type": "bytes32"
        },
        {
          "name": "_sex",
          "type": "bytes32"
        },
        {
          "name": "_age",
          "type": "uint32"
        },
        {
          "name": "_bio",
          "type": "string"
        },
        {
          "name": "_imageHash",
          "type": "string"
        }
      ],
      "name": "createProfile",
      "outputs": [],
      "payable": false,
      "stateMutability": "nonpayable",
      "type": "function",
      "signature": "0xbe5e0236"
    },
    {
      "constant": false,
      "inputs": [
        {
          "name": "_name",
          "type": "bytes32"
        },
        {
          "name": "_sex",
          "type": "bytes32"
        },
        {
          "name": "_age",
          "type": "uint32"
        },
        {
          "name": "_bio",
          "type": "string"
        },
        {
          "name": "_imageHash",
          "type": "string"
        }
      ],
      "name": "updateProfile",
      "outputs": [],
      "payable": false,
      "stateMutability": "nonpayable",
      "type": "function",
      "signature": "0x1504e4fc"
    }
  ],
  "bytecode": "0x608060405260008060006101000a81548160ff02191690831515021790555034801561002a57600080fd5b5060405160208061153f8339810180604052602081101561004a57600080fd5b810190808051906020019092919050505080600060016101000a81548173ffffffffffffffffffffffffffffffffffffffff021916908373ffffffffffffffffffffffffffffffffffffffff16021790555050611493806100ac6000396000f3fe60806040526004361061008e576000357c0100000000000000000000000000000000000000000000000000000000900463ffffffff1680630e7b29bf146100935780631385d24c1461021d5780631504e4fc146102345780638da5cb5b146103b7578063b21370331461040e578063b8acad851461047a578063be5e0236146104a5578063e252839714610628575b600080fd5b34801561009f57600080fd5b506100e2600480360360208110156100b657600080fd5b81019080803573ffffffffffffffffffffffffffffffffffffffff1690602001909291905050506106a3565b604051808773ffffffffffffffffffffffffffffffffffffffff1673ffffffffffffffffffffffffffffffffffffffff1681526020018681526020018581526020018463ffffffff1663ffffffff1681526020018060200180602001838103835285818151815260200191508051906020019080838360005b8381101561017657808201518184015260208101905061015b565b50505050905090810190601f1680156101a35780820380516001836020036101000a031916815260200191505b50838103825284818151815260200191508051906020019080838360005b838110156101dc5780820151818401526020810190506101c1565b50505050905090810190601f1680156102095780820380516001836020036101000a031916815260200191505b509850505050505050505060405180910390f35b34801561022957600080fd5b5061023261083f565b005b34801561024057600080fd5b506103b5600480360360a081101561025757600080fd5b810190808035906020019092919080359060200190929190803563ffffffff1690602001909291908035906020019064010000000081111561029857600080fd5b8201836020820111156102aa57600080fd5b803590602001918460018302840111640100000000831117156102cc57600080fd5b91908080601f016020809104026020016040519081016040528093929190818152602001838380828437600081840152601f19601f8201169050808301925050505050505091929192908035906020019064010000000081111561032f57600080fd5b82018360208201111561034157600080fd5b8035906020019184600183028401116401000000008311171561036357600080fd5b91908080601f016020809104026020016040519081016040528093929190818152602001838380828437600081840152601f19601f820116905080830192505050505050509192919290505050610977565b005b3480156103c357600080fd5b506103cc610dbe565b604051808273ffffffffffffffffffffffffffffffffffffffff1673ffffffffffffffffffffffffffffffffffffffff16815260200191505060405180910390f35b34801561041a57600080fd5b50610423610de4565b6040518080602001828103825283818151815260200191508051906020019060200280838360005b8381101561046657808201518184015260208101905061044b565b505050509050019250505060405180910390f35b34801561048657600080fd5b5061048f610e72565b6040518082815260200191505060405180910390f35b3480156104b157600080fd5b50610626600480360360a08110156104c857600080fd5b810190808035906020019092919080359060200190929190803563ffffffff1690602001909291908035906020019064010000000081111561050957600080fd5b82018360208201111561051b57600080fd5b8035906020019184600183028401116401000000008311171561053d57600080fd5b91908080601f016020809104026020016040519081016040528093929190818152602001838380828437600081840152601f19601f820116905080830192505050505050509192919290803590602001906401000000008111156105a057600080fd5b8201836020820111156105b257600080fd5b803590602001918460018302840111640100000000831117156105d457600080fd5b91908080601f016020809104026020016040519081016040528093929190818152602001838380828437600081840152601f19601f820116905080830192505050505050509192919290505050610e7f565b005b34801561063457600080fd5b506106616004803603602081101561064b57600080fd5b810190808035906020019092919050505061132b565b604051808273ffffffffffffffffffffffffffffffffffffffff1673ffffffffffffffffffffffffffffffffffffffff16815260200191505060405180910390f35b60016020528060005260406000206000915090508060000160009054906101000a900473ffffffffffffffffffffffffffffffffffffffff16908060010154908060020154908060030160009054906101000a900463ffffffff1690806004018054600181600116156101000203166002900480601f0160208091040260200160405190810160405280929190818152602001828054600181600116156101000203166002900480156107975780601f1061076c57610100808354040283529160200191610797565b820191906000526020600020905b81548152906001019060200180831161077a57829003601f168201915b505050505090806005018054600181600116156101000203166002900480601f0160208091040260200160405190810160405280929190818152602001828054600181600116156101000203166002900480156108355780601f1061080a57610100808354040283529160200191610835565b820191906000526020600020905b81548152906001019060200180831161081857829003601f168201915b5050505050905086565b600060019054906101000a900473ffffffffffffffffffffffffffffffffffffffff1673ffffffffffffffffffffffffffffffffffffffff163373ffffffffffffffffffffffffffffffffffffffff16141515610904576040517f08c379a000000000000000000000000000000000000000000000000000000000815260040180806020018281038252600a8152602001807f4f6e6c79206f776e65720000000000000000000000000000000000000000000081525060200191505060405180910390fd5b6000809054906101000a900460ff16156000806101000a81548160ff0219169083151502179055507f157bc0dffe820c120feeb2c8485d73781b331ef2c701bb5fcb244a0089fc30616000809054906101000a900460ff16604051808215151515815260200191505060405180910390a1565b6000809054906101000a900460ff161515156109fb576040517f08c379a00000000000000000000000000000000000000000000000000000000081526004018080602001828103825260138152602001807f436f6e74726163742069732073746f707065640000000000000000000000000081525060200191505060405180910390fd5b600073ffffffffffffffffffffffffffffffffffffffff16600160003373ffffffffffffffffffffffffffffffffffffffff1673ffffffffffffffffffffffffffffffffffffffff16815260200190815260200160002060000160009054906101000a900473ffffffffffffffffffffffffffffffffffffffff1673ffffffffffffffffffffffffffffffffffffffff1614151515610b02576040517f08c379a000000000000000000000000000000000000000000000000000000000815260040180806020018281038252601a8152602001807f5573657220646f206e6f742068617320616e206163636f756e7400000000000081525060200191505060405180910390fd5b610b0a611369565b60c0604051908101604052803373ffffffffffffffffffffffffffffffffffffffff1681526020018781526020018681526020018563ffffffff16815260200184815260200183815250905080600160003373ffffffffffffffffffffffffffffffffffffffff1673ffffffffffffffffffffffffffffffffffffffff16815260200190815260200160002060008201518160000160006101000a81548173ffffffffffffffffffffffffffffffffffffffff021916908373ffffffffffffffffffffffffffffffffffffffff160217905550602082015181600101556040820151816002015560608201518160030160006101000a81548163ffffffff021916908363ffffffff1602179055506080820151816004019080519060200190610c349291906113c2565b5060a0820151816005019080519060200190610c519291906113c2565b509050507f0a79e0171d337d97adf00debfcbe97374acd36abd864d956a4c5baefb258264a338787878787604051808773ffffffffffffffffffffffffffffffffffffffff1673ffffffffffffffffffffffffffffffffffffffff1681526020018681526020018581526020018463ffffffff1663ffffffff1681526020018060200180602001838103835285818151815260200191508051906020019080838360005b83811015610d10578082015181840152602081019050610cf5565b50505050905090810190601f168015610d3d5780820380516001836020036101000a031916815260200191505b50838103825284818151815260200191508051906020019080838360005b83811015610d76578082015181840152602081019050610d5b565b50505050905090810190601f168015610da35780820380516001836020036101000a031916815260200191505b509850505050505050505060405180910390a1505050505050565b600060019054906101000a900473ffffffffffffffffffffffffffffffffffffffff1681565b60606002805480602002602001604051908101604052809291908181526020018280548015610e6857602002820191906000526020600020905b8160009054906101000a900473ffffffffffffffffffffffffffffffffffffffff1673ffffffffffffffffffffffffffffffffffffffff1681526020019060010190808311610e1e575b5050505050905090565b6000600280549050905090565b6000809054906101000a900460ff16151515610f03576040517f08c379a00000000000000000000000000000000000000000000000000000000081526004018080602001828103825260138152602001807f436f6e74726163742069732073746f707065640000000000000000000000000081525060200191505060405180910390fd5b600073ffffffffffffffffffffffffffffffffffffffff16600160003373ffffffffffffffffffffffffffffffffffffffff1673ffffffffffffffffffffffffffffffffffffffff16815260200190815260200160002060000160009054906101000a900473ffffffffffffffffffffffffffffffffffffffff1673ffffffffffffffffffffffffffffffffffffffff16141515611009576040517f08c379a000000000000000000000000000000000000000000000000000000000815260040180806020018281038252601b8152602001807f5573657220616c72656164792068617320616e206163636f756e74000000000081525060200191505060405180910390fd5b611011611369565b60c0604051908101604052803373ffffffffffffffffffffffffffffffffffffffff1681526020018781526020018681526020018563ffffffff16815260200184815260200183815250905080600160003373ffffffffffffffffffffffffffffffffffffffff1673ffffffffffffffffffffffffffffffffffffffff16815260200190815260200160002060008201518160000160006101000a81548173ffffffffffffffffffffffffffffffffffffffff021916908373ffffffffffffffffffffffffffffffffffffffff160217905550602082015181600101556040820151816002015560608201518160030160006101000a81548163ffffffff021916908363ffffffff160217905550608082015181600401908051906020019061113b9291906113c2565b5060a08201518160050190805190602001906111589291906113c2565b5090505060023390806001815401808255809150509060018203906000526020600020016000909192909190916101000a81548173ffffffffffffffffffffffffffffffffffffffff021916908373ffffffffffffffffffffffffffffffffffffffff160217905550507f77b73aeb54b35d12c511d49829d29e158254f622c00923e60ae327d50f4348e0338787878787604051808773ffffffffffffffffffffffffffffffffffffffff1673ffffffffffffffffffffffffffffffffffffffff1681526020018681526020018581526020018463ffffffff1663ffffffff1681526020018060200180602001838103835285818151815260200191508051906020019080838360005b8381101561127d578082015181840152602081019050611262565b50505050905090810190601f1680156112aa5780820380516001836020036101000a031916815260200191505b50838103825284818151815260200191508051906020019080838360005b838110156112e35780820151818401526020810190506112c8565b50505050905090810190601f1680156113105780820380516001836020036101000a031916815260200191505b509850505050505050505060405180910390a1505050505050565b60028181548110151561133a57fe5b906000526020600020016000915054906101000a900473ffffffffffffffffffffffffffffffffffffffff1681565b60c060405190810160405280600073ffffffffffffffffffffffffffffffffffffffff1681526020016000801916815260200160008019168152602001600063ffffffff16815260200160608152602001606081525090565b828054600181600116156101000203166002900490600052602060002090601f016020900481019282601f1061140357805160ff1916838001178555611431565b82800160010185558215611431579182015b82811115611430578251825591602001919060010190611415565b5b50905061143e9190611442565b5090565b61146491905b80821115611460576000816000905550600101611448565b5090565b9056fea165627a7a72305820a48323bae0c859df4cc1fa27fcb260b0e01ac6ac580cd74ccf43ab643825352b0029",
  "source": "pragma solidity ^0.5.0;\n\n/** @title Profiles.\n    @author Cristian Espinoza Garner - @crisgarner.\n */\ncontract Profiles {\n\n    /** @notice Logs when a profile is created.\n      */\n    event LogCreateProfile(\n        address _owner,\n        bytes32 _name,\n        bytes32 _sex,\n        uint32 _age,\n        string _bio,\n        string _imageHash\n    );\n\n    /** @notice Logs when a profile is updated.\n      */\n    event LogUpdateProfile(\n        address _owner,\n        bytes32 _name,\n        bytes32 _sex,\n        uint32 _age,\n        string _bio,\n        string _imageHash\n    );\n\n    /** @notice Logs when contract is paused or resumed.\n      */\n    event LogToogleContractActive(\n        bool _stopped\n    );\n\n    struct Profile {\n        address owner; /** @dev Address of the profile creator. */\n        bytes32 name;\n        bytes32 sex;\n        uint32 age;\n        string bio;\n        string imageHash; /** @dev Hash of profile picture saved on IPFS. */\n    }\n\n    /** @dev State variables. \n      */\n    bool private stopped = false; \n    address public owner; \n    mapping(address => Profile) public addressToProfile; \n    address[] public profilesArray;\n\n    /** @notice Constructor sets the as the owner the deployer of the contract.\n      */\n    constructor(address _owner) public {\n        owner = _owner;\n    }\n\n    /** @notice Modifier that reverts if the caller is not the owner.\n      */\n    modifier isAdmin() {\n        require(msg.sender == owner, \"Only owner\");\n        _;\n    }\n\n    /** @notice Modifier that reverts if the circuit breaker is active.\n      */\n    modifier stopInEmergency { \n        require(!stopped, \"Contract is stopped\");\n         _;\n    }\n\n    /** @notice Toogles the value of stopped in order to pause functionability of the contract.\n      * @dev Can only be executed by admin and emits a log with the current value of the stopped.\n      */\n    function toggleContractActive() isAdmin public {\n        stopped = !stopped;\n        emit LogToogleContractActive(stopped);\n    }\n\n    /** @notice Gets the size of the profiles array.\n      * @return uint the lenght of ProfilesArray.\n      */\n    function getCurrentProfilesSize() public view returns(uint){\n        return profilesArray.length;\n    }\n\n    /** @notice Gets the array of profiles addresses.\n      * @return address[] the array of profile addresses.\n      */\n    function getProfiles() public view returns (address[] memory) {\n       return profilesArray;\n   }\n\n    /** @notice Creates a profile with user basic information.\n      * @dev emits a log with all the information added and can be disable with circuit breaker.\n      * @param _name  name of the user.\n      * @param _sex sex of the user.\n      * @param _age age of the user.\n      * @param _bio short bio of the user.\n      * @param _imageHash hash of the profile pic of the user.\n      */\n    function createProfile(\n        bytes32 _name,\n        bytes32 _sex,\n        uint32 _age,\n        string memory _bio,\n        string memory _imageHash\n    ) public stopInEmergency {\n        require(addressToProfile[msg.sender].owner == address(0), \"User already has an account\");\n        Profile memory profile = Profile(msg.sender, _name, _sex, _age, _bio,_imageHash);\n        addressToProfile[msg.sender] = profile;\n        profilesArray.push(msg.sender);\n        emit LogCreateProfile(msg.sender,_name,_sex,_age,_bio,_imageHash);\n    }\n\n    /** @notice Updates the profile of a previously registered user.\n      * @dev emits a log with all the information added and can be disable with circuit breaker.\n      * @param _name  name of the user.\n      * @param _sex sex of the user.\n      * @param _age age of the user.\n      * @param _bio short bio of the user.\n      * @param _imageHash hash of the profile pic of the user.\n      */\n    function updateProfile(\n        bytes32 _name,\n        bytes32 _sex,\n        uint32 _age,\n        string memory _bio,\n        string memory _imageHash\n    ) public stopInEmergency{\n        require(addressToProfile[msg.sender].owner != address(0), \"User do not has an account\");\n        Profile memory profile = Profile(msg.sender, _name, _sex, _age, _bio, _imageHash);\n        addressToProfile[msg.sender] = profile;\n        emit LogUpdateProfile(msg.sender,_name,_sex,_age,_bio, _imageHash);\n    }\n\n}",
  "sourcePath": "/home/crisgarner/Projects/consensys/final-project/contracts/Profiles.sol",
  "compiler": {
    "name": "solc",
    "version": "0.5.0+commit.1d4f565a.Emscripten.clang"
  },
  "schemaVersion": "3.0.0",
  "updatedAt": "2019-01-09T19:40:43.165Z",
  "devdoc": {
    "author": "Cristian Espinoza Garner - @crisgarner.",
    "methods": {
      "createProfile(bytes32,bytes32,uint32,string,string)": {
        "details": "emits a log with all the information added and can be disable with circuit breaker.",
        "params": {
          "_age": "age of the user.",
          "_bio": "short bio of the user.",
          "_imageHash": "hash of the profile pic of the user.",
          "_name": "name of the user.",
          "_sex": "sex of the user."
        }
      },
      "getCurrentProfilesSize()": {
        "return": "uint the lenght of ProfilesArray."
      },
      "getProfiles()": {
        "return": "address[] the array of profile addresses."
      },
      "toggleContractActive()": {
        "details": "Can only be executed by admin and emits a log with the current value of the stopped."
      },
      "updateProfile(bytes32,bytes32,uint32,string,string)": {
        "details": "emits a log with all the information added and can be disable with circuit breaker.",
        "params": {
          "_age": "age of the user.",
          "_bio": "short bio of the user.",
          "_imageHash": "hash of the profile pic of the user.",
          "_name": "name of the user.",
          "_sex": "sex of the user."
        }
      }
    },
    "title": "Profiles."
  },
  "userdoc": {
    "methods": {
      "constructor": "Constructor sets the as the owner the deployer of the contract.",
      "createProfile(bytes32,bytes32,uint32,string,string)": {
        "notice": "Creates a profile with user basic information."
      },
      "getCurrentProfilesSize()": {
        "notice": "Gets the size of the profiles array."
      },
      "getProfiles()": {
        "notice": "Gets the array of profiles addresses."
      },
      "toggleContractActive()": {
        "notice": "Toogles the value of stopped in order to pause functionability of the contract."
      },
      "updateProfile(bytes32,bytes32,uint32,string,string)": {
        "notice": "Updates the profile of a previously registered user."
      }
    }
  }
}